{
  "_format": "hh-sol-artifact-1",
  "contractName": "dPost",
  "sourceName": "contracts/dPost.sol",
  "abi": [
    {
      "anonymous": false,
      "inputs": [
        {
          "indexed": true,
          "internalType": "uint256",
          "name": "postId",
          "type": "uint256"
        },
        {
          "indexed": true,
          "internalType": "address",
          "name": "author",
          "type": "address"
        },
        {
          "indexed": false,
          "internalType": "string",
          "name": "content",
          "type": "string"
        }
      ],
      "name": "PostCreated",
      "type": "event"
    },
    {
      "anonymous": false,
      "inputs": [
        {
          "indexed": true,
          "internalType": "uint256",
          "name": "postId",
          "type": "uint256"
        },
        {
          "indexed": true,
          "internalType": "address",
          "name": "voter",
          "type": "address"
        },
        {
          "indexed": false,
          "internalType": "uint256",
          "name": "newUpvoteCount",
          "type": "uint256"
        }
      ],
      "name": "Upvoted",
      "type": "event"
    },
    {
      "inputs": [
        {
          "internalType": "address",
          "name": "",
          "type": "address"
        }
      ],
      "name": "balances",
      "outputs": [
        {
          "internalType": "uint256",
          "name": "",
          "type": "uint256"
        }
      ],
      "stateMutability": "view",
      "type": "function"
    },
    {
      "inputs": [
        {
          "internalType": "string",
          "name": "_content",
          "type": "string"
        }
      ],
      "name": "createPost",
      "outputs": [],
      "stateMutability": "nonpayable",
      "type": "function"
    },
    {
      "inputs": [],
      "name": "postCounter",
      "outputs": [
        {
          "internalType": "uint256",
          "name": "",
          "type": "uint256"
        }
      ],
      "stateMutability": "view",
      "type": "function"
    },
    {
      "inputs": [
        {
          "internalType": "uint256",
          "name": "",
          "type": "uint256"
        }
      ],
      "name": "posts",
      "outputs": [
        {
          "internalType": "uint256",
          "name": "postId",
          "type": "uint256"
        },
        {
          "internalType": "address",
          "name": "author",
          "type": "address"
        },
        {
          "internalType": "string",
          "name": "content",
          "type": "string"
        },
        {
          "internalType": "uint256",
          "name": "upvotes",
          "type": "uint256"
        },
        {
          "internalType": "uint256",
          "name": "timestamp",
          "type": "uint256"
        }
      ],
      "stateMutability": "view",
      "type": "function"
    },
    {
      "inputs": [
        {
          "internalType": "uint256",
          "name": "_postId",
          "type": "uint256"
        }
      ],
      "name": "upvotePost",
      "outputs": [],
      "stateMutability": "payable",
      "type": "function"
    },
    {
      "inputs": [],
      "name": "withdrawEarnings",
      "outputs": [],
      "stateMutability": "nonpayable",
      "type": "function"
    }
  ],
  "bytecode": "0x608060405234801561001057600080fd5b50610fe8806100206000396000f3fe6080604052600436106100555760003560e01c806309b3d75e1461005a5780630b1e7f831461008557806327e235e3146100c65780638d2f826814610103578063b73c6ce91461011f578063c7303c6114610136575b600080fd5b34801561006657600080fd5b5061006f61015f565b60405161007c91906106cd565b60405180910390f35b34801561009157600080fd5b506100ac60048036038101906100a79190610728565b610165565b6040516100bd959493929190610826565b60405180910390f35b3480156100d257600080fd5b506100ed60048036038101906100e891906108ac565b610243565b6040516100fa91906106cd565b60405180910390f35b61011d60048036038101906101189190610728565b61025b565b005b34801561012b57600080fd5b5061013461041d565b005b34801561014257600080fd5b5061015d60048036038101906101589190610a0e565b610533565b005b60005481565b60016020528060005260406000206000915090508060000154908060010160009054906101000a900473ffffffffffffffffffffffffffffffffffffffff16908060020180546101b490610a86565b80601f01602080910402602001604051908101604052809291908181526020018280546101e090610a86565b801561022d5780601f106102025761010080835404028352916020019161022d565b820191906000526020600020905b81548152906001019060200180831161021057829003601f168201915b5050505050908060030154908060040154905085565b60026020528060005260406000206000915090505481565b662386f26fc1000034146102a4576040517f08c379a000000000000000000000000000000000000000000000000000000000815260040161029b90610b03565b60405180910390fd5b60006001600083815260200190815260200160002060000154036102fd576040517f08c379a00000000000000000000000000000000000000000000000000000000081526004016102f490610b6f565b60405180910390fd5b60016000828152602001908152602001600020600301600081548092919061032490610bbe565b919050555034600260006001600085815260200190815260200160002060010160009054906101000a900473ffffffffffffffffffffffffffffffffffffffff1673ffffffffffffffffffffffffffffffffffffffff1673ffffffffffffffffffffffffffffffffffffffff16815260200190815260200160002060008282546103ae9190610c06565b925050819055503373ffffffffffffffffffffffffffffffffffffffff16817f7e4df0c1564681e2420161629240d0cd874949908eb21433d82a37d1484476a2600160008581526020019081526020016000206003015460405161041291906106cd565b60405180910390a350565b6000600260003373ffffffffffffffffffffffffffffffffffffffff1673ffffffffffffffffffffffffffffffffffffffff168152602001908152602001600020549050600081116104a4576040517f08c379a000000000000000000000000000000000000000000000000000000000815260040161049b90610c86565b60405180910390fd5b6000600260003373ffffffffffffffffffffffffffffffffffffffff1673ffffffffffffffffffffffffffffffffffffffff168152602001908152602001600020819055503373ffffffffffffffffffffffffffffffffffffffff166108fc829081150290604051600060405180830381858888f1935050505015801561052f573d6000803e3d6000fd5b5050565b6000815111610577576040517f08c379a000000000000000000000000000000000000000000000000000000000815260040161056e90610cf2565b60405180910390fd5b60008081548092919061058990610bbe565b91905055506040518060a0016040528060005481526020013373ffffffffffffffffffffffffffffffffffffffff168152602001828152602001600081526020014281525060016000805481526020019081526020016000206000820151816000015560208201518160010160006101000a81548173ffffffffffffffffffffffffffffffffffffffff021916908373ffffffffffffffffffffffffffffffffffffffff16021790555060408201518160020190816106489190610ebe565b5060608201518160030155608082015181600401559050503373ffffffffffffffffffffffffffffffffffffffff166000547f8e40a51278abe2f4b410c0a96ff0bdd024b22666ca334062bf72afd596984bd6836040516106a99190610f90565b60405180910390a350565b6000819050919050565b6106c7816106b4565b82525050565b60006020820190506106e260008301846106be565b92915050565b6000604051905090565b600080fd5b600080fd5b610705816106b4565b811461071057600080fd5b50565b600081359050610722816106fc565b92915050565b60006020828403121561073e5761073d6106f2565b5b600061074c84828501610713565b91505092915050565b600073ffffffffffffffffffffffffffffffffffffffff82169050919050565b600061078082610755565b9050919050565b61079081610775565b82525050565b600081519050919050565b600082825260208201905092915050565b60005b838110156107d05780820151818401526020810190506107b5565b60008484015250505050565b6000601f19601f8301169050919050565b60006107f882610796565b61080281856107a1565b93506108128185602086016107b2565b61081b816107dc565b840191505092915050565b600060a08201905061083b60008301886106be565b6108486020830187610787565b818103604083015261085a81866107ed565b905061086960608301856106be565b61087660808301846106be565b9695505050505050565b61088981610775565b811461089457600080fd5b50565b6000813590506108a681610880565b92915050565b6000602082840312156108c2576108c16106f2565b5b60006108d084828501610897565b91505092915050565b600080fd5b600080fd5b7f4e487b7100000000000000000000000000000000000000000000000000000000600052604160045260246000fd5b61091b826107dc565b810181811067ffffffffffffffff8211171561093a576109396108e3565b5b80604052505050565b600061094d6106e8565b90506109598282610912565b919050565b600067ffffffffffffffff821115610979576109786108e3565b5b610982826107dc565b9050602081019050919050565b82818337600083830152505050565b60006109b16109ac8461095e565b610943565b9050828152602081018484840111156109cd576109cc6108de565b5b6109d884828561098f565b509392505050565b600082601f8301126109f5576109f46108d9565b5b8135610a0584826020860161099e565b91505092915050565b600060208284031215610a2457610a236106f2565b5b600082013567ffffffffffffffff811115610a4257610a416106f7565b5b610a4e848285016109e0565b91505092915050565b7f4e487b7100000000000000000000000000000000000000000000000000000000600052602260045260246000fd5b60006002820490506001821680610a9e57607f821691505b602082108103610ab157610ab0610a57565b5b50919050565b7f5570766f746520726571756972657320302e3031204554480000000000000000600082015250565b6000610aed6018836107a1565b9150610af882610ab7565b602082019050919050565b60006020820190508181036000830152610b1c81610ae0565b9050919050565b7f506f737420646f6573206e6f7420657869737400000000000000000000000000600082015250565b6000610b596013836107a1565b9150610b6482610b23565b602082019050919050565b60006020820190508181036000830152610b8881610b4c565b9050919050565b7f4e487b7100000000000000000000000000000000000000000000000000000000600052601160045260246000fd5b6000610bc9826106b4565b91507fffffffffffffffffffffffffffffffffffffffffffffffffffffffffffffffff8203610bfb57610bfa610b8f565b5b600182019050919050565b6000610c11826106b4565b9150610c1c836106b4565b9250828201905080821115610c3457610c33610b8f565b5b92915050565b7f4e6f206561726e696e677320746f207769746864726177000000000000000000600082015250565b6000610c706017836107a1565b9150610c7b82610c3a565b602082019050919050565b60006020820190508181036000830152610c9f81610c63565b9050919050565b7f436f6e74656e742063616e6e6f7420626520656d707479000000000000000000600082015250565b6000610cdc6017836107a1565b9150610ce782610ca6565b602082019050919050565b60006020820190508181036000830152610d0b81610ccf565b9050919050565b60008190508160005260206000209050919050565b60006020601f8301049050919050565b600082821b905092915050565b600060088302610d747fffffffffffffffffffffffffffffffffffffffffffffffffffffffffffffffff82610d37565b610d7e8683610d37565b95508019841693508086168417925050509392505050565b6000819050919050565b6000610dbb610db6610db1846106b4565b610d96565b6106b4565b9050919050565b6000819050919050565b610dd583610da0565b610de9610de182610dc2565b848454610d44565b825550505050565b600090565b610dfe610df1565b610e09818484610dcc565b505050565b5b81811015610e2d57610e22600082610df6565b600181019050610e0f565b5050565b601f821115610e7257610e4381610d12565b610e4c84610d27565b81016020851015610e5b578190505b610e6f610e6785610d27565b830182610e0e565b50505b505050565b600082821c905092915050565b6000610e9560001984600802610e77565b1980831691505092915050565b6000610eae8383610e84565b9150826002028217905092915050565b610ec782610796565b67ffffffffffffffff811115610ee057610edf6108e3565b5b610eea8254610a86565b610ef5828285610e31565b600060209050601f831160018114610f285760008415610f16578287015190505b610f208582610ea2565b865550610f88565b601f198416610f3686610d12565b60005b82811015610f5e57848901518255600182019150602085019450602081019050610f39565b86831015610f7b5784890151610f77601f891682610e84565b8355505b6001600288020188555050505b505050505050565b60006020820190508181036000830152610faa81846107ed565b90509291505056fea264697066735822122068c2b8054e2966056accd555c1aa08d405d0ecf5f4b42385c890f19d2743681564736f6c63430008120033",
  "linkReferences": {},
  "deployedLinkReferences": {}
}